{
  "contractName": "FirstContract",
  "abi": [
    {
      "constant": true,
      "inputs": [
        {
          "name": "",
          "type": "uint256"
        }
      ],
      "name": "books",
      "outputs": [
        {
          "name": "title",
          "type": "string"
        },
        {
          "name": "price",
          "type": "uint256"
        }
      ],
      "payable": false,
      "stateMutability": "view",
      "type": "function"
    },
    {
      "constant": true,
      "inputs": [
        {
          "name": "",
          "type": "address"
        }
      ],
      "name": "persons",
      "outputs": [
        {
          "name": "balance",
          "type": "uint256"
        }
      ],
      "payable": false,
      "stateMutability": "view",
      "type": "function"
    },
    {
      "constant": true,
      "inputs": [],
      "name": "owner",
      "outputs": [
        {
          "name": "",
          "type": "address"
        }
      ],
      "payable": false,
      "stateMutability": "view",
      "type": "function"
    },
    {
      "inputs": [],
      "payable": false,
      "stateMutability": "nonpayable",
      "type": "constructor"
    },
    {
      "payable": true,
      "stateMutability": "payable",
      "type": "fallback"
    },
    {
      "anonymous": false,
      "inputs": [
        {
          "indexed": true,
          "name": "addr",
          "type": "address"
        },
        {
          "indexed": false,
          "name": "amount",
          "type": "uint256"
        }
      ],
      "name": "Deposit",
      "type": "event"
    },
    {
      "anonymous": false,
      "inputs": [
        {
          "indexed": true,
          "name": "addr",
          "type": "address"
        },
        {
          "indexed": false,
          "name": "amount",
          "type": "uint256"
        }
      ],
      "name": "Withdrawal",
      "type": "event"
    },
    {
      "anonymous": false,
      "inputs": [
        {
          "indexed": true,
          "name": "addr",
          "type": "address"
        },
        {
          "indexed": false,
          "name": "book",
          "type": "uint256"
        }
      ],
      "name": "BuyBook",
      "type": "event"
    },
    {
      "constant": false,
      "inputs": [
        {
          "name": "addr",
          "type": "address"
        },
        {
          "name": "_bookIndex",
          "type": "uint256"
        }
      ],
      "name": "buyBook",
      "outputs": [],
      "payable": true,
      "stateMutability": "payable",
      "type": "function"
    },
    {
      "constant": false,
      "inputs": [
        {
          "name": "addr",
          "type": "address"
        },
        {
          "name": "_bookIndex",
          "type": "uint256"
        }
      ],
      "name": "sellBook",
      "outputs": [],
      "payable": false,
      "stateMutability": "nonpayable",
      "type": "function"
    },
    {
      "constant": false,
      "inputs": [
        {
          "name": "addr",
          "type": "address"
        },
        {
          "name": "index",
          "type": "uint256"
        }
      ],
      "name": "removeBook",
      "outputs": [
        {
          "name": "",
          "type": "uint256[]"
        }
      ],
      "payable": false,
      "stateMutability": "nonpayable",
      "type": "function"
    },
    {
      "constant": false,
      "inputs": [
        {
          "name": "addr",
          "type": "address"
        },
        {
          "name": "amount",
          "type": "uint256"
        }
      ],
      "name": "sendFunds",
      "outputs": [],
      "payable": true,
      "stateMutability": "payable",
      "type": "function"
    }
  ],
  "bytecode": "0x60806040523480156200001157600080fd5b50d380156200001f57600080fd5b50d280156200002d57600080fd5b5033600460006101000a81548173ffffffffffffffffffffffffffffffffffffffff021916908373ffffffffffffffffffffffffffffffffffffffff160217905550600560405180604001604052806040518060400160405280600681526020017f426f6f6b204100000000000000000000000000000000000000000000000000008152508152602001622dc6c081525090806001815401808255809150509060018203906000526020600020906002020160009091929091909150600082015181600001908051906020019062000107929190620003b3565b5060208201518160010155505050600560405180604001604052806040518060400160405280600681526020017f426f6f6b204200000000000000000000000000000000000000000000000000008152508152602001624c4b40815250908060018154018082558091505090600182039060005260206000209060020201600090919290919091506000820151816000019080519060200190620001ad929190620003b3565b5060208201518160010155505050600560405180604001604052806040518060400160405280600681526020017f426f6f6b204300000000000000000000000000000000000000000000000000008152508152602001627a120081525090806001815401808255809150509060018203906000526020600020906002020160009091929091909150600082015181600001908051906020019062000253929190620003b3565b5060208201518160010155505050600560405180604001604052806040518060400160405280600681526020017f426f6f6b20440000000000000000000000000000000000000000000000000000815250815260200162b71b00815250908060018154018082558091505090600182039060005260206000209060020201600090919290919091506000820151816000019080519060200190620002f9929190620003b3565b5060208201518160010155505050600560405180604001604052806040518060400160405280600681526020017f426f6f6b20450000000000000000000000000000000000000000000000000000815250815260200162e4e1c08152509080600181540180825580915050906001820390600052602060002090600202016000909192909190915060008201518160000190805190602001906200039f929190620003b3565b506020820151816001015550505062000462565b828054600181600116156101000203166002900490600052602060002090601f016020900481019282601f10620003f657805160ff191683800117855562000427565b8280016001018555821562000427579182015b828111156200042657825182559160200191906001019062000409565b5b5090506200043691906200043a565b5090565b6200045f91905b808211156200045b57600081600090555060010162000441565b5090565b90565b610f6880620004726000396000f3fe6080604052600436106100705760003560e01c80636f64234e1161004e5780636f64234e146102145780638ada2cf6146102625780638da5cb5b146102e1578063d2f93f451461035257610070565b806358e268921461007c57806367ecd843146100f1578063687440461461013f575b61007a333461041c565b005b34801561008857600080fd5b50d3801561009557600080fd5b50d280156100a257600080fd5b506100ef600480360360408110156100b957600080fd5b81019080803573ffffffffffffffffffffffffffffffffffffffff16906020019092919080359060200190929190505050610534565b005b61013d6004803603604081101561010757600080fd5b81019080803573ffffffffffffffffffffffffffffffffffffffff1690602001909291908035906020019092919050505061092b565b005b34801561014b57600080fd5b50d3801561015857600080fd5b50d2801561016557600080fd5b506101926004803603602081101561017c57600080fd5b8101908080359060200190929190505050610bd4565b6040518080602001838152602001828103825284818151815260200191508051906020019080838360005b838110156101d85780820151818401526020810190506101bd565b50505050905090810190601f1680156102055780820380516001836020036101000a031916815260200191505b50935050505060405180910390f35b6102606004803603604081101561022a57600080fd5b81019080803573ffffffffffffffffffffffffffffffffffffffff16906020019092919080359060200190929190505050610c9d565b005b34801561026e57600080fd5b50d3801561027b57600080fd5b50d2801561028857600080fd5b506102cb6004803603602081101561029f57600080fd5b81019080803573ffffffffffffffffffffffffffffffffffffffff169060200190929190505050610d3e565b6040518082815260200191505060405180910390f35b3480156102ed57600080fd5b50d380156102fa57600080fd5b50d2801561030757600080fd5b50610310610d5c565b604051808273ffffffffffffffffffffffffffffffffffffffff1673ffffffffffffffffffffffffffffffffffffffff16815260200191505060405180910390f35b34801561035e57600080fd5b50d3801561036b57600080fd5b50d2801561037857600080fd5b506103c56004803603604081101561038f57600080fd5b81019080803573ffffffffffffffffffffffffffffffffffffffff16906020019092919080359060200190929190505050610d82565b6040518080602001828103825283818151815260200191508051906020019060200280838360005b838110156104085780820151818401526020810190506103ed565b505050509050019250505060405180910390f35b60008111610492576040517f08c379a00000000000000000000000000000000000000000000000000000000081526004018080602001828103825260198152602001807f506c65617365206465706f736974206d6f72652066756e64730000000000000081525060200191505060405180910390fd5b80600660008473ffffffffffffffffffffffffffffffffffffffff1673ffffffffffffffffffffffffffffffffffffffff168152602001908152602001600020600001600082825401925050819055503373ffffffffffffffffffffffffffffffffffffffff167fe1fffcc4923d04b559f4d29a8bfc6cda04eb5b0d3c460751c2402c5c5cc9109c826040518082815260200191505060405180910390a25050565b6000600660008473ffffffffffffffffffffffffffffffffffffffff1673ffffffffffffffffffffffffffffffffffffffff16815260200190815260200160002060010180549050116105d2576040517f08c379a0000000000000000000000000000000000000000000000000000000008152600401808060200182810382526021815260200180610f146021913960400191505060405180910390fd5b6004600660008473ffffffffffffffffffffffffffffffffffffffff1673ffffffffffffffffffffffffffffffffffffffff168152602001908152602001600020600101828154811061062157fe5b906000526020600020015411156106a0576040517f08c379a00000000000000000000000000000000000000000000000000000000081526004018080602001828103825260198152602001807f596f7520646f206e6f742068617665207375636820626f6f6b0000000000000081525060200191505060405180910390fd5b80600073__IterableMapping_______________________63732a2ccf9091856040518363ffffffff1660e01b8152600401808381526020018273ffffffffffffffffffffffffffffffffffffffff1673ffffffffffffffffffffffffffffffffffffffff1681526020019250505060206040518083038186803b15801561072757600080fd5b505af415801561073b573d6000803e3d6000fd5b505050506040513d602081101561075157600080fd5b8101908080519060200190929190505050146107d5576040517f08c379a00000000000000000000000000000000000000000000000000000000081526004018080602001828103825260198152602001807f596f7520646f206e6f742068617665207468697320626f6f6b0000000000000081525060200191505060405180910390fd5b6000600660008473ffffffffffffffffffffffffffffffffffffffff1673ffffffffffffffffffffffffffffffffffffffff168152602001908152602001600020905060008073__IterableMapping_______________________63732a2ccf9091866040518363ffffffff1660e01b8152600401808381526020018273ffffffffffffffffffffffffffffffffffffffff1673ffffffffffffffffffffffffffffffffffffffff1681526020019250505060206040518083038186803b15801561089f57600080fd5b505af41580156108b3573d6000803e3d6000fd5b505050506040513d60208110156108c957600080fd5b810190808051906020019092919050505090506108e68482610d82565b50600583815481106108f457fe5b9060005260206000209060020201600101548260000160008282540192505081905550610925848360000154610c9d565b50505050565b6000600660008473ffffffffffffffffffffffffffffffffffffffff1673ffffffffffffffffffffffffffffffffffffffff168152602001908152602001600020905060048211156109e5576040517f08c379a00000000000000000000000000000000000000000000000000000000081526004018080602001828103825260178152602001807f426f6f6b206e6f7420666f756e642c2074727920302d3400000000000000000081525060200191505060405180910390fd5b600582815481106109f257fe5b90600052602060002090600202016001015481600001541015610a7d576040517f08c379a000000000000000000000000000000000000000000000000000000000815260040180806020018281038252601b8152602001807f596f7520646f206e6f74206861766520656e6f67682066756e6473000000000081525060200191505060405180910390fd5b60058281548110610a8a57fe5b906000526020600020906002020160010154816000016000828254039250508190555080600101829080600181540180825580915050906001820390600052602060002001600090919290919091505550600073__IterableMapping_______________________63bc2b405c909185856040518463ffffffff1660e01b8152600401808481526020018373ffffffffffffffffffffffffffffffffffffffff1673ffffffffffffffffffffffffffffffffffffffff168152602001828152602001935050505060006040518083038186803b158015610b6957600080fd5b505af4158015610b7d573d6000803e3d6000fd5b505050508273ffffffffffffffffffffffffffffffffffffffff167f5143360ab707006cb7454f902037f2b12a7dec84b72d8bb2aa7d4f612e21f489836040518082815260200191505060405180910390a2505050565b60058181548110610be157fe5b9060005260206000209060020201600091509050806000018054600181600116156101000203166002900480601f016020809104026020016040519081016040528092919081815260200182805460018160011615610100020316600290048015610c8d5780601f10610c6257610100808354040283529160200191610c8d565b820191906000526020600020905b815481529060010190602001808311610c7057829003601f168201915b5050505050908060010154905082565b6000600660008473ffffffffffffffffffffffffffffffffffffffff1673ffffffffffffffffffffffffffffffffffffffff16815260200190815260200160002090508181600001600082825403925050819055508273ffffffffffffffffffffffffffffffffffffffff166108fc839081150290604051600060405180830381858888f19350505050158015610d38573d6000803e3d6000fd5b50505050565b60066020528060005260406000206000915090508060000154905081565b600460009054906101000a900473ffffffffffffffffffffffffffffffffffffffff1681565b60606000600660008573ffffffffffffffffffffffffffffffffffffffff1673ffffffffffffffffffffffffffffffffffffffff168152602001908152602001600020905060008390505b6001826001018054905003811015610e2657816001016001820181548110610df157fe5b9060005260206000200154826001018281548110610e0b57fe5b90600052602060002001819055508080600101915050610dcd565b5080600101600182600101805490500381548110610e4057fe5b906000526020600020016000905580600101805480919060019003610e659190610ec2565b5080600101805480602002602001604051908101604052809291908181526020018280548015610eb457602002820191906000526020600020905b815481526020019060010190808311610ea0575b505050505091505092915050565b815481835581811115610ee957818360005260206000209182019101610ee89190610eee565b5b505050565b610f1091905b80821115610f0c576000816000905550600101610ef4565b5090565b9056fe596f7520646f206e6f74206861766520616e7920626f6f6b7320746f2073656c6ca26474726f6e58200d0ad94868204076a710ef5b8990fd8054486b89ec10349cbeb4ab22a5301a8364736f6c634300050a0031",
  "source": "pragma solidity ^0.5.10;\r\n\r\nlibrary IterableMapping {\r\n    // Iterable mapping from address to uint;\r\n    struct Map {\r\n        address[] keys;\r\n        mapping(address => uint256) values;\r\n        mapping(address => uint256) indexOf;\r\n        mapping(address => bool) inserted;\r\n    }\r\n\r\n    function get(Map storage map, address key) public view returns (uint256) {\r\n        return map.values[key];\r\n    }\r\n\r\n    function getKeyAtIndex(Map storage map, uint256 index)\r\n        public\r\n        view\r\n        returns (address)\r\n    {\r\n        return map.keys[index];\r\n    }\r\n\r\n    function size(Map storage map) public view returns (uint256) {\r\n        return map.keys.length;\r\n    }\r\n\r\n    function set(\r\n        Map storage map,\r\n        address key,\r\n        uint256 val\r\n    ) public {\r\n        if (map.inserted[key]) {\r\n            map.values[key] = val;\r\n        } else {\r\n            map.inserted[key] = true;\r\n            map.values[key] = val;\r\n            map.indexOf[key] = map.keys.length;\r\n            map.keys.push(key);\r\n        }\r\n    }\r\n\r\n    function remove(Map storage map, address key) public {\r\n        if (!map.inserted[key]) {\r\n            return;\r\n        }\r\n\r\n        delete map.inserted[key];\r\n        delete map.values[key];\r\n\r\n        uint256 index = map.indexOf[key];\r\n        uint256 lastIndex = map.keys.length - 1;\r\n        address lastKey = map.keys[lastIndex];\r\n\r\n        map.indexOf[lastKey] = index;\r\n        delete map.indexOf[key];\r\n\r\n        map.keys[index] = lastKey;\r\n        map.keys.pop();\r\n    }\r\n}\r\n\r\ncontract FirstContract {\r\n    using IterableMapping for IterableMapping.Map;\r\n\r\n    IterableMapping.Map private map;\r\n\r\n    struct Book {\r\n        string title;\r\n        uint256 price;\r\n    }\r\n    struct Person {\r\n        uint256 balance;\r\n        uint256[] personsBooks;\r\n    }\r\n\r\n    address public owner;\r\n    Book[] public books;\r\n\r\n    mapping(address => Person) public persons;\r\n\r\n    event Deposit(address indexed addr, uint256 amount);\r\n    event Withdrawal(address indexed addr, uint256 amount);\r\n    event BuyBook(address indexed addr, uint256 book);\r\n\r\n    modifier onlyOwner() {\r\n        require(msg.sender == owner, \"Access denied\");\r\n        _;\r\n    }\r\n\r\n    constructor() public {\r\n        owner = msg.sender;\r\n\r\n        books.push(Book({title: \"Book A\", price: 3000000}));\r\n        books.push(Book({title: \"Book B\", price: 5000000}));\r\n        books.push(Book({title: \"Book C\", price: 8000000}));\r\n        books.push(Book({title: \"Book D\", price: 12000000}));\r\n        books.push(Book({title: \"Book E\", price: 15000000}));\r\n    }\r\n\r\n    function() external payable {\r\n        deposit(msg.sender, msg.value);\r\n    }\r\n\r\n    function deposit(address addr, uint256 _amount) private {\r\n        require(_amount > 0, \"Please deposit more funds\");\r\n        // persons[msg.sender].addr = msg.sender;\r\n        persons[addr].balance += _amount;\r\n\r\n        emit Deposit(msg.sender, _amount);\r\n    }\r\n\r\n    function buyBook(address addr, uint256 _bookIndex) public payable {\r\n        Person storage person = persons[addr];\r\n        require(_bookIndex <= 4, \"Book not found, try 0-4\");\r\n        require(\r\n            person.balance >= books[_bookIndex].price,\r\n            \"You do not have enogh funds\"\r\n        );\r\n\r\n        person.balance -= books[_bookIndex].price;\r\n        person.personsBooks.push(_bookIndex);\r\n        map.set(addr, _bookIndex);\r\n\r\n        emit BuyBook(addr, _bookIndex);\r\n    }\r\n\r\n    function sellBook(address payable addr, uint256 _bookIndex) public {\r\n        require(\r\n            persons[addr].personsBooks.length > 0,\r\n            \"You do not have any books to sell\"\r\n        );\r\n        require(\r\n            persons[addr].personsBooks[_bookIndex] <= 4,\r\n            \"You do not have such book\"\r\n        );\r\n        require(map.get(addr) == _bookIndex, \"You do not have this book\");\r\n\r\n        Person storage person = persons[addr];\r\n        uint256 bookToRemove = map.get(addr);\r\n        removeBook(addr, bookToRemove);\r\n\r\n        person.balance += books[_bookIndex].price;\r\n        sendFunds(addr, person.balance);\r\n    }\r\n\r\n    function removeBook(address addr, uint256 index)\r\n        public\r\n        returns (uint256[] memory)\r\n    {\r\n        Person storage person = persons[addr];\r\n        for (uint256 i = index; i < person.personsBooks.length - 1; i++) {\r\n            person.personsBooks[i] = person.personsBooks[i + 1];\r\n        }\r\n        delete person.personsBooks[person.personsBooks.length - 1];\r\n        person.personsBooks.length--;\r\n        return person.personsBooks;\r\n    }\r\n\r\n    function sendFunds(address payable addr, uint256 amount) public payable {\r\n        Person storage person = persons[addr];\r\n        person.balance -= amount;\r\n        addr.transfer(amount);\r\n    }\r\n}\r\n",
  "sourcePath": "D:/work/projects/BUYSELL/contracts/FirstContract.sol",
  "compiler": {
    "name": "solc",
    "version": "0.5.10+commit.a1d534ef.Emscripten.clang"
  },
  "schemaVersion": "2.0.1",
  "updatedAt": "2020-07-23T12:03:08.396Z"
}